{
  "_format": "hh-sol-artifact-1",
  "contractName": "Donation",
  "sourceName": "contracts/Donation.sol",
  "abi": [
    {
      "inputs": [
        {
          "internalType": "uint256",
          "name": "amount",
          "type": "uint256"
        }
      ],
      "name": "donate",
      "outputs": [
        {
          "internalType": "string",
          "name": "",
          "type": "string"
        }
      ],
      "stateMutability": "nonpayable",
      "type": "function"
    },
    {
      "inputs": [],
      "name": "getTotalDonation",
      "outputs": [
        {
          "internalType": "uint256",
          "name": "",
          "type": "uint256"
        }
      ],
      "stateMutability": "view",
      "type": "function"
    },
    {
      "inputs": [
        {
          "internalType": "address",
          "name": "user",
          "type": "address"
        }
      ],
      "name": "getUserDonations",
      "outputs": [
        {
          "internalType": "uint256[]",
          "name": "",
          "type": "uint256[]"
        }
      ],
      "stateMutability": "view",
      "type": "function"
    },
    {
      "inputs": [],
      "name": "helloworld",
      "outputs": [
        {
          "internalType": "uint256",
          "name": "",
          "type": "uint256"
        }
      ],
      "stateMutability": "view",
      "type": "function"
    },
    {
      "inputs": [],
      "name": "num",
      "outputs": [
        {
          "internalType": "uint256",
          "name": "",
          "type": "uint256"
        }
      ],
      "stateMutability": "view",
      "type": "function"
    },
    {
      "inputs": [],
      "name": "totalDonation",
      "outputs": [
        {
          "internalType": "uint256",
          "name": "",
          "type": "uint256"
        }
      ],
      "stateMutability": "view",
      "type": "function"
    },
    {
      "inputs": [
        {
          "internalType": "address",
          "name": "",
          "type": "address"
        },
        {
          "internalType": "uint256",
          "name": "",
          "type": "uint256"
        }
      ],
      "name": "userDonations",
      "outputs": [
        {
          "internalType": "uint256",
          "name": "",
          "type": "uint256"
        }
      ],
      "stateMutability": "view",
      "type": "function"
    }
  ],
  "bytecode": "0x6080604052601460015534801561001557600080fd5b506106e1806100256000396000f3fe608060405234801561001057600080fd5b506004361061007d5760003560e01c806356e23eb11161005b57806356e23eb1146100ee578063732435b21461010c578063ee2ac05f1461013c578063f14faf6f1461015a5761007d565b80632f2f4859146100825780634933e631146100a05780634e70b1dc146100d0575b600080fd5b61008a61018a565b6040516100979190610347565b60405180910390f35b6100ba60048036038101906100b591906103f1565b610194565b6040516100c79190610347565b60405180910390f35b6100d86101c5565b6040516100e59190610347565b60405180910390f35b6100f66101cb565b6040516101039190610347565b60405180910390f35b61012660048036038101906101219190610431565b6101d4565b604051610133919061051c565b60405180910390f35b61014461026b565b6040516101519190610347565b60405180910390f35b610174600480360381019061016f919061053e565b610271565b6040516101819190610604565b60405180910390f35b6000600154905090565b600260205281600052604060002081815481106101b057600080fd5b90600052602060002001600091509150505481565b60015481565b60008054905090565b6060600260008373ffffffffffffffffffffffffffffffffffffffff1673ffffffffffffffffffffffffffffffffffffffff16815260200190815260200160002080548060200260200160405190810160405280929190818152602001828054801561025f57602002820191906000526020600020905b81548152602001906001019080831161024b575b50505050509050919050565b60005481565b6060816000808282546102849190610655565b92505081905550600260003373ffffffffffffffffffffffffffffffffffffffff1673ffffffffffffffffffffffffffffffffffffffff1681526020019081526020016000208290806001815401808255809150506001900390600052602060002001600090919091909150556040518060400160405280600481526020017f646f6e65000000000000000000000000000000000000000000000000000000008152509050919050565b6000819050919050565b6103418161032e565b82525050565b600060208201905061035c6000830184610338565b92915050565b600080fd5b600073ffffffffffffffffffffffffffffffffffffffff82169050919050565b600061039282610367565b9050919050565b6103a281610387565b81146103ad57600080fd5b50565b6000813590506103bf81610399565b92915050565b6103ce8161032e565b81146103d957600080fd5b50565b6000813590506103eb816103c5565b92915050565b6000806040838503121561040857610407610362565b5b6000610416858286016103b0565b9250506020610427858286016103dc565b9150509250929050565b60006020828403121561044757610446610362565b5b6000610455848285016103b0565b91505092915050565b600081519050919050565b600082825260208201905092915050565b6000819050602082019050919050565b6104938161032e565b82525050565b60006104a5838361048a565b60208301905092915050565b6000602082019050919050565b60006104c98261045e565b6104d38185610469565b93506104de8361047a565b8060005b8381101561050f5781516104f68882610499565b9750610501836104b1565b9250506001810190506104e2565b5085935050505092915050565b6000602082019050818103600083015261053681846104be565b905092915050565b60006020828403121561055457610553610362565b5b6000610562848285016103dc565b91505092915050565b600081519050919050565b600082825260208201905092915050565b60005b838110156105a557808201518184015260208101905061058a565b838111156105b4576000848401525b50505050565b6000601f19601f8301169050919050565b60006105d68261056b565b6105e08185610576565b93506105f0818560208601610587565b6105f9816105ba565b840191505092915050565b6000602082019050818103600083015261061e81846105cb565b905092915050565b7f4e487b7100000000000000000000000000000000000000000000000000000000600052601160045260246000fd5b60006106608261032e565b915061066b8361032e565b9250827fffffffffffffffffffffffffffffffffffffffffffffffffffffffffffffffff038211156106a05761069f610626565b5b82820190509291505056fea26469706673582212203c67ba4e233317359ca9ae17d2f8823735ff1ed62e31db08b01fd084ea43317f64736f6c63430008090033",
  "linkReferences": {},
  "deployedLinkReferences": {}
}